{
  "contractName": "DollarBank",
  "abi": [
    {
      "constant": true,
      "inputs": [],
      "name": "tenCents",
      "outputs": [
        {
          "name": "",
          "type": "uint256"
        }
      ],
      "payable": false,
      "stateMutability": "view",
      "type": "function"
    },
    {
      "constant": true,
      "inputs": [
        {
          "name": "",
          "type": "address"
        }
      ],
      "name": "enrolled",
      "outputs": [
        {
          "name": "",
          "type": "bool"
        }
      ],
      "payable": false,
      "stateMutability": "view",
      "type": "function"
    },
    {
      "constant": false,
      "inputs": [],
      "name": "unpause",
      "outputs": [],
      "payable": false,
      "stateMutability": "nonpayable",
      "type": "function"
    },
    {
      "constant": true,
      "inputs": [
        {
          "name": "account",
          "type": "address"
        }
      ],
      "name": "isPauser",
      "outputs": [
        {
          "name": "",
          "type": "bool"
        }
      ],
      "payable": false,
      "stateMutability": "view",
      "type": "function"
    },
    {
      "constant": true,
      "inputs": [],
      "name": "myLighthouse",
      "outputs": [
        {
          "name": "",
          "type": "address"
        }
      ],
      "payable": false,
      "stateMutability": "view",
      "type": "function"
    },
    {
      "constant": true,
      "inputs": [],
      "name": "paused",
      "outputs": [
        {
          "name": "",
          "type": "bool"
        }
      ],
      "payable": false,
      "stateMutability": "view",
      "type": "function"
    },
    {
      "constant": false,
      "inputs": [],
      "name": "renouncePauser",
      "outputs": [],
      "payable": false,
      "stateMutability": "nonpayable",
      "type": "function"
    },
    {
      "constant": false,
      "inputs": [],
      "name": "renounceOwnership",
      "outputs": [],
      "payable": false,
      "stateMutability": "nonpayable",
      "type": "function"
    },
    {
      "constant": true,
      "inputs": [],
      "name": "interestRate",
      "outputs": [
        {
          "name": "",
          "type": "uint256"
        }
      ],
      "payable": false,
      "stateMutability": "view",
      "type": "function"
    },
    {
      "constant": false,
      "inputs": [
        {
          "name": "account",
          "type": "address"
        }
      ],
      "name": "addPauser",
      "outputs": [],
      "payable": false,
      "stateMutability": "nonpayable",
      "type": "function"
    },
    {
      "constant": false,
      "inputs": [],
      "name": "pause",
      "outputs": [],
      "payable": false,
      "stateMutability": "nonpayable",
      "type": "function"
    },
    {
      "constant": true,
      "inputs": [],
      "name": "owner",
      "outputs": [
        {
          "name": "",
          "type": "address"
        }
      ],
      "payable": false,
      "stateMutability": "view",
      "type": "function"
    },
    {
      "constant": true,
      "inputs": [],
      "name": "isOwner",
      "outputs": [
        {
          "name": "",
          "type": "bool"
        }
      ],
      "payable": false,
      "stateMutability": "view",
      "type": "function"
    },
    {
      "constant": true,
      "inputs": [],
      "name": "interestRunning",
      "outputs": [
        {
          "name": "",
          "type": "bool"
        }
      ],
      "payable": false,
      "stateMutability": "view",
      "type": "function"
    },
    {
      "constant": true,
      "inputs": [],
      "name": "minBalanceEth",
      "outputs": [
        {
          "name": "",
          "type": "uint256"
        }
      ],
      "payable": false,
      "stateMutability": "view",
      "type": "function"
    },
    {
      "constant": true,
      "inputs": [],
      "name": "identify",
      "outputs": [
        {
          "name": "",
          "type": "uint256"
        }
      ],
      "payable": false,
      "stateMutability": "pure",
      "type": "function"
    },
    {
      "constant": false,
      "inputs": [
        {
          "name": "newOwner",
          "type": "address"
        }
      ],
      "name": "transferOwnership",
      "outputs": [],
      "payable": false,
      "stateMutability": "nonpayable",
      "type": "function"
    },
    {
      "constant": true,
      "inputs": [],
      "name": "minBalanceUsd",
      "outputs": [
        {
          "name": "",
          "type": "uint256"
        }
      ],
      "payable": false,
      "stateMutability": "view",
      "type": "function"
    },
    {
      "inputs": [
        {
          "name": "_myLighthouse",
          "type": "address"
        }
      ],
      "payable": false,
      "stateMutability": "nonpayable",
      "type": "constructor"
    },
    {
      "payable": true,
      "stateMutability": "payable",
      "type": "fallback"
    },
    {
      "anonymous": false,
      "inputs": [
        {
          "indexed": true,
          "name": "accountAddress",
          "type": "address"
        }
      ],
      "name": "Enrolled",
      "type": "event"
    },
    {
      "anonymous": false,
      "inputs": [
        {
          "indexed": true,
          "name": "accountAddress",
          "type": "address"
        },
        {
          "indexed": false,
          "name": "amount",
          "type": "uint256"
        }
      ],
      "name": "Deposited",
      "type": "event"
    },
    {
      "anonymous": false,
      "inputs": [
        {
          "indexed": true,
          "name": "accountAddress",
          "type": "address"
        },
        {
          "indexed": false,
          "name": "withdrawAmount",
          "type": "uint256"
        },
        {
          "indexed": false,
          "name": "newBalance",
          "type": "uint256"
        }
      ],
      "name": "Withdrawn",
      "type": "event"
    },
    {
      "anonymous": false,
      "inputs": [
        {
          "indexed": true,
          "name": "accountAddress",
          "type": "address"
        },
        {
          "indexed": false,
          "name": "balanceAtClose",
          "type": "uint256"
        }
      ],
      "name": "ClosedAccount",
      "type": "event"
    },
    {
      "anonymous": false,
      "inputs": [],
      "name": "InterestStarted",
      "type": "event"
    },
    {
      "anonymous": false,
      "inputs": [],
      "name": "InterestStopped",
      "type": "event"
    },
    {
      "anonymous": false,
      "inputs": [
        {
          "indexed": false,
          "name": "_totalInterestPaid",
          "type": "uint256"
        }
      ],
      "name": "InterestPaid",
      "type": "event"
    },
    {
      "anonymous": false,
      "inputs": [],
      "name": "OracleDataNotValid",
      "type": "event"
    },
    {
      "anonymous": false,
      "inputs": [
        {
          "indexed": false,
          "name": "account",
          "type": "address"
        }
      ],
      "name": "Paused",
      "type": "event"
    },
    {
      "anonymous": false,
      "inputs": [
        {
          "indexed": false,
          "name": "account",
          "type": "address"
        }
      ],
      "name": "Unpaused",
      "type": "event"
    },
    {
      "anonymous": false,
      "inputs": [
        {
          "indexed": true,
          "name": "account",
          "type": "address"
        }
      ],
      "name": "PauserAdded",
      "type": "event"
    },
    {
      "anonymous": false,
      "inputs": [
        {
          "indexed": true,
          "name": "account",
          "type": "address"
        }
      ],
      "name": "PauserRemoved",
      "type": "event"
    },
    {
      "anonymous": false,
      "inputs": [
        {
          "indexed": true,
          "name": "previousOwner",
          "type": "address"
        },
        {
          "indexed": true,
          "name": "newOwner",
          "type": "address"
        }
      ],
      "name": "OwnershipTransferred",
      "type": "event"
    },
    {
      "constant": false,
      "inputs": [],
      "name": "enroll",
      "outputs": [
        {
          "name": "_enrolled",
          "type": "bool"
        }
      ],
      "payable": false,
      "stateMutability": "nonpayable",
      "type": "function"
    },
    {
      "constant": false,
      "inputs": [],
      "name": "deposit",
      "outputs": [
        {
          "name": "_balance",
          "type": "uint256"
        }
      ],
      "payable": true,
      "stateMutability": "payable",
      "type": "function"
    },
    {
      "constant": false,
      "inputs": [
        {
          "name": "withdrawAmount",
          "type": "uint256"
        }
      ],
      "name": "withdraw",
      "outputs": [
        {
          "name": "_balance",
          "type": "uint256"
        }
      ],
      "payable": false,
      "stateMutability": "nonpayable",
      "type": "function"
    },
    {
      "constant": false,
      "inputs": [],
      "name": "closeAccount",
      "outputs": [
        {
          "name": "",
          "type": "bool"
        }
      ],
      "payable": false,
      "stateMutability": "nonpayable",
      "type": "function"
    },
    {
      "constant": true,
      "inputs": [],
      "name": "getBalance",
      "outputs": [
        {
          "name": "",
          "type": "uint256"
        }
      ],
      "payable": false,
      "stateMutability": "view",
      "type": "function"
    },
    {
      "constant": true,
      "inputs": [],
      "name": "getAccounts",
      "outputs": [
        {
          "name": "",
          "type": "address[]"
        }
      ],
      "payable": false,
      "stateMutability": "view",
      "type": "function"
    },
    {
      "constant": true,
      "inputs": [],
      "name": "getNumAccounts",
      "outputs": [
        {
          "name": "",
          "type": "uint256"
        }
      ],
      "payable": false,
      "stateMutability": "view",
      "type": "function"
    },
    {
      "constant": true,
      "inputs": [],
      "name": "getContractAddress",
      "outputs": [
        {
          "name": "",
          "type": "address"
        }
      ],
      "payable": false,
      "stateMutability": "view",
      "type": "function"
    },
    {
      "constant": true,
      "inputs": [],
      "name": "getContractBalance",
      "outputs": [
        {
          "name": "",
          "type": "uint256"
        }
      ],
      "payable": false,
      "stateMutability": "view",
      "type": "function"
    },
    {
      "constant": false,
      "inputs": [
        {
          "name": "_rate",
          "type": "uint256"
        }
      ],
      "name": "setInterestRate",
      "outputs": [],
      "payable": false,
      "stateMutability": "nonpayable",
      "type": "function"
    },
    {
      "constant": false,
      "inputs": [
        {
          "name": "_minBalance",
          "type": "uint256"
        }
      ],
      "name": "setMinBalance",
      "outputs": [],
      "payable": false,
      "stateMutability": "nonpayable",
      "type": "function"
    },
    {
      "constant": false,
      "inputs": [],
      "name": "startPayments",
      "outputs": [],
      "payable": false,
      "stateMutability": "nonpayable",
      "type": "function"
    },
    {
      "constant": false,
      "inputs": [],
      "name": "stopPayments",
      "outputs": [],
      "payable": false,
      "stateMutability": "nonpayable",
      "type": "function"
    },
    {
      "constant": false,
      "inputs": [],
      "name": "pauseContract",
      "outputs": [],
      "payable": false,
      "stateMutability": "nonpayable",
      "type": "function"
    },
    {
      "constant": false,
      "inputs": [],
      "name": "unPauseContract",
      "outputs": [],
      "payable": false,
      "stateMutability": "nonpayable",
      "type": "function"
    },
    {
      "constant": false,
      "inputs": [],
      "name": "poke",
      "outputs": [],
      "payable": false,
      "stateMutability": "nonpayable",
      "type": "function"
    },
    {
      "constant": false,
      "inputs": [],
      "name": "payInterestOwner",
      "outputs": [],
      "payable": false,
      "stateMutability": "nonpayable",
      "type": "function"
    }
  ],
  "bytecode": "0x608060405260038055600160045566012c221cc6a0006006553480156200002557600080fd5b5060405162003ad538038062003ad5833981810160405260208110156200004b57600080fd5b8101908080519060200190929190505050336000806101000a81548173ffffffffffffffffffffffffffffffffffffffff021916908373ffffffffffffffffffffffffffffffffffffffff1602179055506000809054906101000a900473ffffffffffffffffffffffffffffffffffffffff1673ffffffffffffffffffffffffffffffffffffffff16600073ffffffffffffffffffffffffffffffffffffffff167f8be0079c531659141344cd1fd0a4f28419497f9722a3daafe3b4186f6b6457e060405160405180910390a36200012933620001ac60201b60201c565b6000600260006101000a81548160ff02191690831515021790555080600860016101000a81548173ffffffffffffffffffffffffffffffffffffffff021916908373ffffffffffffffffffffffffffffffffffffffff160217905550620001956200020d60201b60201c565b620001a56200021f60201b60201c565b50620005a0565b620001c78160016200038560201b620032bd1790919060201c565b8073ffffffffffffffffffffffffffffffffffffffff167f6719d08c1888103bea251a4ed56406bd0c3e69723c8a1686e017e7bbe159b6f860405160405180910390a250565b600654600a6004540202600581905550565b6200022f6200046960201b60201c565b620002a2576040517f08c379a00000000000000000000000000000000000000000000000000000000081526004018080602001828103825260208152602001807f4f776e61626c653a2063616c6c6572206973206e6f7420746865206f776e657281525060200191505060405180910390fd5b600260009054906101000a900460ff161562000326576040517f08c379a00000000000000000000000000000000000000000000000000000000081526004018080602001828103825260108152602001807f5061757361626c653a207061757365640000000000000000000000000000000081525060200191505060405180910390fd5b600860009054906101000a900460ff1662000383576001600860006101000a81548160ff0219169083151502179055507f1d110ef6d9298f409fa8c2070f35bb4346254ce1a8ad58a4d0ca74128736e89860405160405180910390a15b565b620003978282620004c060201b60201c565b156200040b576040517f08c379a000000000000000000000000000000000000000000000000000000000815260040180806020018281038252601f8152602001807f526f6c65733a206163636f756e7420616c72656164792068617320726f6c650081525060200191505060405180910390fd5b60018260000160008373ffffffffffffffffffffffffffffffffffffffff1673ffffffffffffffffffffffffffffffffffffffff16815260200190815260200160002060006101000a81548160ff0219169083151502179055505050565b60008060009054906101000a900473ffffffffffffffffffffffffffffffffffffffff1673ffffffffffffffffffffffffffffffffffffffff163373ffffffffffffffffffffffffffffffffffffffff1614905090565b60008073ffffffffffffffffffffffffffffffffffffffff168273ffffffffffffffffffffffffffffffffffffffff16141562000549576040517f08c379a000000000000000000000000000000000000000000000000000000000815260040180806020018281038252602281526020018062003ab36022913960400191505060405180910390fd5b8260000160008373ffffffffffffffffffffffffffffffffffffffff1673ffffffffffffffffffffffffffffffffffffffff16815260200190815260200160002060009054906101000a900460ff16905092915050565b61350380620005b06000396000f3fe6080604052600436106102045760003560e01c806382dc1ec411610118578063bac15203116100a0578063e65f2a7e1161006f578063e65f2a7e146108d1578063eeb7286614610900578063f2fde38b1461092b578063f55487d61461097c578063f9b6a796146109a757610204565b8063bac152031461084a578063bf2782bc14610861578063c91d956c14610878578063d0e30db0146108b357610204565b80638da5cb5b116100e75780638da5cb5b1461073f5780638f32d59b14610796578063990e5ca6146107c55780639ba89492146107f4578063a9713d7f1461081f57610204565b806382dc1ec4146106545780638456cb59146106a55780638a48ac03146106bc5780638b2d981a1461072857610204565b806346fbf68e1161019b5780636dd22fc61161016a5780636dd22fc6146105a15780636ef8d66d146105d05780636f9fb98a146105e7578063715018a6146106125780637c3a00fd1461062957610204565b806346fbf68e14610477578063524704ac146104e05780635c975abb146105375780635f84f3021461056657610204565b80632e1a7d4d116101d75780632e1a7d4d146103a357806332a2c5d0146103f25780633f4ba83a14610449578063439766ce1461046057610204565b80630726429e146102cd57806310eb0e0e146102f857806312065fe014610361578063181783581461038c575b6000803690501461027d576040517f08c379a00000000000000000000000000000000000000000000000000000000081526004018080602001828103825260168152602001807f646174612073656e742077697468206d6573736167650000000000000000000081525060200191505060405180910390fd5b3373ffffffffffffffffffffffffffffffffffffffff167f2da466a7b24304f47e87fa2e1e5a81b9831ce54fec19055ce277ca2f39ba42c4346040518082815260200191505060405180910390a2005b3480156102d957600080fd5b506102e26109be565b6040518082815260200191505060405180910390f35b34801561030457600080fd5b506103476004803603602081101561031b57600080fd5b81019080803573ffffffffffffffffffffffffffffffffffffffff1690602001909291905050506109c4565b604051808215151515815260200191505060405180910390f35b34801561036d57600080fd5b506103766109e4565b6040518082815260200191505060405180910390f35b34801561039857600080fd5b506103a1610a2b565b005b3480156103af57600080fd5b506103dc600480360360208110156103c657600080fd5b8101908080359060200190929190505050610c92565b6040518082815260200191505060405180910390f35b3480156103fe57600080fd5b50610407611032565b604051808273ffffffffffffffffffffffffffffffffffffffff1673ffffffffffffffffffffffffffffffffffffffff16815260200191505060405180910390f35b34801561045557600080fd5b5061045e61103a565b005b34801561046c57600080fd5b5061047561119a565b005b34801561048357600080fd5b506104c66004803603602081101561049a57600080fd5b81019080803573ffffffffffffffffffffffffffffffffffffffff16906020019092919050505061124f565b604051808215151515815260200191505060405180910390f35b3480156104ec57600080fd5b506104f561126c565b604051808273ffffffffffffffffffffffffffffffffffffffff1673ffffffffffffffffffffffffffffffffffffffff16815260200191505060405180910390f35b34801561054357600080fd5b5061054c611292565b604051808215151515815260200191505060405180910390f35b34801561057257600080fd5b5061059f6004803603602081101561058957600080fd5b81019080803590602001909291905050506112a9565b005b3480156105ad57600080fd5b506105b66113b1565b604051808215151515815260200191505060405180910390f35b3480156105dc57600080fd5b506105e5611877565b005b3480156105f357600080fd5b506105fc611882565b6040518082815260200191505060405180910390f35b34801561061e57600080fd5b506106276118a1565b005b34801561063557600080fd5b5061063e6119da565b6040518082815260200191505060405180910390f35b34801561066057600080fd5b506106a36004803603602081101561067757600080fd5b81019080803573ffffffffffffffffffffffffffffffffffffffff1690602001909291905050506119e0565b005b3480156106b157600080fd5b506106ba611a4a565b005b3480156106c857600080fd5b506106d1611bab565b6040518080602001828103825283818151815260200191508051906020019060200280838360005b838110156107145780820151818401526020810190506106f9565b505050509050019250505060405180910390f35b34801561073457600080fd5b5061073d611cb3565b005b34801561074b57600080fd5b50610754611e0f565b604051808273ffffffffffffffffffffffffffffffffffffffff1673ffffffffffffffffffffffffffffffffffffffff16815260200191505060405180910390f35b3480156107a257600080fd5b506107ab611e38565b604051808215151515815260200191505060405180910390f35b3480156107d157600080fd5b506107da611e8f565b604051808215151515815260200191505060405180910390f35b34801561080057600080fd5b50610809611ea2565b6040518082815260200191505060405180910390f35b34801561082b57600080fd5b50610834611f29565b6040518082815260200191505060405180910390f35b34801561085657600080fd5b5061085f611f2f565b005b34801561086d57600080fd5b50610876611fce565b005b34801561088457600080fd5b506108b16004803603602081101561089b57600080fd5b81019080803590602001909291905050506120d4565b005b6108bb6121d6565b6040518082815260200191505060405180910390f35b3480156108dd57600080fd5b506108e66124b8565b604051808215151515815260200191505060405180910390f35b34801561090c57600080fd5b5061091561283e565b6040518082815260200191505060405180910390f35b34801561093757600080fd5b5061097a6004803603602081101561094e57600080fd5b81019080803573ffffffffffffffffffffffffffffffffffffffff16906020019092919050505061284a565b005b34801561098857600080fd5b506109916128d0565b6040518082815260200191505060405180910390f35b3480156109b357600080fd5b506109bc6128d6565b005b60065481565b600c6020528060005260406000206000915054906101000a900460ff1681565b6000600b60003373ffffffffffffffffffffffffffffffffffffffff1673ffffffffffffffffffffffffffffffffffffffff16815260200190815260200160002054905090565b600860019054906101000a900473ffffffffffffffffffffffffffffffffffffffff1673ffffffffffffffffffffffffffffffffffffffff163373ffffffffffffffffffffffffffffffffffffffff1614610aee576040517f08c379a000000000000000000000000000000000000000000000000000000000815260040180806020018281038252600c8152602001807f556e617574686f7269736564000000000000000000000000000000000000000081525060200191505060405180910390fd5b600860009054906101000a900460ff16610b70576040517f08c379a000000000000000000000000000000000000000000000000000000000815260040180806020018281038252601a8152602001807f496e746572657374207061796d656e74732073746f707065642e00000000000081525060200191505060405180910390fd5b600080600860019054906101000a900473ffffffffffffffffffffffffffffffffffffffff1673ffffffffffffffffffffffffffffffffffffffff1663420b81f66040518163ffffffff1660e01b8152600401604080518083038186803b158015610bda57600080fd5b505afa158015610bee573d6000803e3d6000fd5b505050506040513d6040811015610c0457600080fd5b810190808051906020019092919080519060200190929190505050816fffffffffffffffffffffffffffffffff169150809350819250505081610c74577f59d48bb82010677fb3ca9c6bbeb3a3801c5e1572c307569e3b870d6937bb65ba60405160405180910390a15050610c90565b610c7d81612a31565b610c85612aa9565b610c8d612abb565b50505b565b6000600c60003373ffffffffffffffffffffffffffffffffffffffff1673ffffffffffffffffffffffffffffffffffffffff16815260200190815260200160002060009054906101000a900460ff16610d53576040517f08c379a00000000000000000000000000000000000000000000000000000000081526004018080602001828103825260158152602001807f596f75206d75737420666972737420656e726f6c6c000000000000000000000081525060200191505060405180910390fd5b8180600b60003373ffffffffffffffffffffffffffffffffffffffff1673ffffffffffffffffffffffffffffffffffffffff168152602001908152602001600020541015610e09576040517f08c379a00000000000000000000000000000000000000000000000000000000081526004018080602001828103825260148152602001807f496e73756666696369656e742062616c616e636500000000000000000000000081525060200191505060405180910390fd5b600b60003373ffffffffffffffffffffffffffffffffffffffff1673ffffffffffffffffffffffffffffffffffffffff168152602001908152602001600020543073ffffffffffffffffffffffffffffffffffffffff16311015610eb8576040517f08c379a00000000000000000000000000000000000000000000000000000000081526004018080602001828103825260268152602001806134406026913960400191505060405180910390fd5b610f0a83600b60003373ffffffffffffffffffffffffffffffffffffffff1673ffffffffffffffffffffffffffffffffffffffff16815260200190815260200160002054612c7590919063ffffffff16565b600b60003373ffffffffffffffffffffffffffffffffffffffff1673ffffffffffffffffffffffffffffffffffffffff168152602001908152602001600020819055503373ffffffffffffffffffffffffffffffffffffffff166108fc849081150290604051600060405180830381858888f19350505050158015610f93573d6000803e3d6000fd5b50600b60003373ffffffffffffffffffffffffffffffffffffffff1673ffffffffffffffffffffffffffffffffffffffff1681526020019081526020016000205491503373ffffffffffffffffffffffffffffffffffffffff167f92ccf450a286a957af52509bc1c9939d1a6a481783e142e41e2499f0bb66ebc68484604051808381526020018281526020019250505060405180910390a250919050565b600030905090565b6110433361124f565b611098576040517f08c379a00000000000000000000000000000000000000000000000000000000081526004018080602001828103825260308152602001806133ea6030913960400191505060405180910390fd5b600260009054906101000a900460ff1661111a576040517f08c379a00000000000000000000000000000000000000000000000000000000081526004018080602001828103825260148152602001807f5061757361626c653a206e6f742070617573656400000000000000000000000081525060200191505060405180910390fd5b6000600260006101000a81548160ff0219169083151502179055507f5db9ee0a495bf2e6ff9c91a7834c1ba4fdd244a5e8aa4e537bd38aeae4b073aa33604051808273ffffffffffffffffffffffffffffffffffffffff1673ffffffffffffffffffffffffffffffffffffffff16815260200191505060405180910390a1565b6111a2611e38565b611214576040517f08c379a00000000000000000000000000000000000000000000000000000000081526004018080602001828103825260208152602001807f4f776e61626c653a2063616c6c6572206973206e6f7420746865206f776e657281525060200191505060405180910390fd5b600860009054906101000a900460ff1615611245576000600860006101000a81548160ff0219169083151502179055505b61124d611a4a565b565b6000611265826001612cfe90919063ffffffff16565b9050919050565b600860019054906101000a900473ffffffffffffffffffffffffffffffffffffffff1681565b6000600260009054906101000a900460ff16905090565b6112b1611e38565b611323576040517f08c379a00000000000000000000000000000000000000000000000000000000081526004018080602001828103825260208152602001807f4f776e61626c653a2063616c6c6572206973206e6f7420746865206f776e657281525060200191505060405180910390fd5b60018110158015611335575060068111155b6113a7576040517f08c379a000000000000000000000000000000000000000000000000000000000815260040180806020018281038252601e8152602001807f726174652073686f756c64206265206265747765656e203120616e642036000081525060200191505060405180910390fd5b8060038190555050565b6000600c60003373ffffffffffffffffffffffffffffffffffffffff1673ffffffffffffffffffffffffffffffffffffffff16815260200190815260200160002060009054906101000a900460ff16611472576040517f08c379a00000000000000000000000000000000000000000000000000000000081526004018080602001828103825260158152602001807f596f75206d75737420666972737420656e726f6c6c000000000000000000000081525060200191505060405180910390fd5b600b60003373ffffffffffffffffffffffffffffffffffffffff1673ffffffffffffffffffffffffffffffffffffffff1681526020019081526020016000205480600b60003373ffffffffffffffffffffffffffffffffffffffff1673ffffffffffffffffffffffffffffffffffffffff168152602001908152602001600020541015611567576040517f08c379a00000000000000000000000000000000000000000000000000000000081526004018080602001828103825260148152602001807f496e73756666696369656e742062616c616e636500000000000000000000000081525060200191505060405180910390fd5b600b60003373ffffffffffffffffffffffffffffffffffffffff1673ffffffffffffffffffffffffffffffffffffffff168152602001908152602001600020543073ffffffffffffffffffffffffffffffffffffffff16311015611616576040517f08c379a00000000000000000000000000000000000000000000000000000000081526004018080602001828103825260268152602001806134406026913960400191505060405180910390fd5b600260009054906101000a900460ff1615611699576040517f08c379a00000000000000000000000000000000000000000000000000000000081526004018080602001828103825260108152602001807f5061757361626c653a207061757365640000000000000000000000000000000081525060200191505060405180910390fd5b6000600b60003373ffffffffffffffffffffffffffffffffffffffff1673ffffffffffffffffffffffffffffffffffffffff1681526020019081526020016000205490506000600b60003373ffffffffffffffffffffffffffffffffffffffff1673ffffffffffffffffffffffffffffffffffffffff168152602001908152602001600020819055506000600c60003373ffffffffffffffffffffffffffffffffffffffff1673ffffffffffffffffffffffffffffffffffffffff16815260200190815260200160002060006101000a81548160ff02191690831515021790555061178333612ddc565b60008111156117d4573373ffffffffffffffffffffffffffffffffffffffff166108fc829081150290604051600060405180830381858888f193505050501580156117d2573d6000803e3d6000fd5b505b3373ffffffffffffffffffffffffffffffffffffffff167f7aada01f2a633efb947ddd92f84368215074ce99a5f64c26640f254736b2f256826040518082815260200191505060405180910390a2600c60003373ffffffffffffffffffffffffffffffffffffffff1673ffffffffffffffffffffffffffffffffffffffff16815260200190815260200160002060009054906101000a900460ff16159250505090565b61188033612ef1565b565b60003073ffffffffffffffffffffffffffffffffffffffff1631905090565b6118a9611e38565b61191b576040517f08c379a00000000000000000000000000000000000000000000000000000000081526004018080602001828103825260208152602001807f4f776e61626c653a2063616c6c6572206973206e6f7420746865206f776e657281525060200191505060405180910390fd5b600073ffffffffffffffffffffffffffffffffffffffff166000809054906101000a900473ffffffffffffffffffffffffffffffffffffffff1673ffffffffffffffffffffffffffffffffffffffff167f8be0079c531659141344cd1fd0a4f28419497f9722a3daafe3b4186f6b6457e060405160405180910390a360008060006101000a81548173ffffffffffffffffffffffffffffffffffffffff021916908373ffffffffffffffffffffffffffffffffffffffff160217905550565b60035481565b6119e93361124f565b611a3e576040517f08c379a00000000000000000000000000000000000000000000000000000000081526004018080602001828103825260308152602001806133ea6030913960400191505060405180910390fd5b611a4781612f4b565b50565b611a533361124f565b611aa8576040517f08c379a00000000000000000000000000000000000000000000000000000000081526004018080602001828103825260308152602001806133ea6030913960400191505060405180910390fd5b600260009054906101000a900460ff1615611b2b576040517f08c379a00000000000000000000000000000000000000000000000000000000081526004018080602001828103825260108152602001807f5061757361626c653a207061757365640000000000000000000000000000000081525060200191505060405180910390fd5b6001600260006101000a81548160ff0219169083151502179055507f62e78cea01bee320cd4e420270b5ea74000d11b0c9f74754ebdbfc544b05a25833604051808273ffffffffffffffffffffffffffffffffffffffff1673ffffffffffffffffffffffffffffffffffffffff16815260200191505060405180910390a1565b6060611bb5611e38565b611c27576040517f08c379a00000000000000000000000000000000000000000000000000000000081526004018080602001828103825260208152602001807f4f776e61626c653a2063616c6c6572206973206e6f7420746865206f776e657281525060200191505060405180910390fd5b6009805480602002602001604051908101604052809291908181526020018280548015611ca957602002820191906000526020600020905b8160009054906101000a900473ffffffffffffffffffffffffffffffffffffffff1673ffffffffffffffffffffffffffffffffffffffff1681526020019060010190808311611c5f575b5050505050905090565b611cbb611e38565b611d2d576040517f08c379a00000000000000000000000000000000000000000000000000000000081526004018080602001828103825260208152602001807f4f776e61626c653a2063616c6c6572206973206e6f7420746865206f776e657281525060200191505060405180910390fd5b600260009054906101000a900460ff1615611db0576040517f08c379a00000000000000000000000000000000000000000000000000000000081526004018080602001828103825260108152602001807f5061757361626c653a207061757365640000000000000000000000000000000081525060200191505060405180910390fd5b600860009054906101000a900460ff1615611e0d576000600860006101000a81548160ff0219169083151502179055507f26c0d6c3c4cb4e0f0bb1588fede18f59384fd7f97b0eb9136e33ef2b6ea2f3af60405160405180910390a15b565b60008060009054906101000a900473ffffffffffffffffffffffffffffffffffffffff16905090565b60008060009054906101000a900473ffffffffffffffffffffffffffffffffffffffff1673ffffffffffffffffffffffffffffffffffffffff163373ffffffffffffffffffffffffffffffffffffffff1614905090565b600860009054906101000a900460ff1681565b6000611eac611e38565b611f1e576040517f08c379a00000000000000000000000000000000000000000000000000000000081526004018080602001828103825260208152602001807f4f776e61626c653a2063616c6c6572206973206e6f7420746865206f776e657281525060200191505060405180910390fd5b600980549050905090565b60055481565b611f37611e38565b611fa9576040517f08c379a00000000000000000000000000000000000000000000000000000000081526004018080602001828103825260208152602001807f4f776e61626c653a2063616c6c6572206973206e6f7420746865206f776e657281525060200191505060405180910390fd5b6001600860006101000a81548160ff021916908315150217905550611fcc61103a565b565b611fd6611e38565b612048576040517f08c379a00000000000000000000000000000000000000000000000000000000081526004018080602001828103825260208152602001807f4f776e61626c653a2063616c6c6572206973206e6f7420746865206f776e657281525060200191505060405180910390fd5b600860009054906101000a900460ff166120ca576040517f08c379a000000000000000000000000000000000000000000000000000000000815260040180806020018281038252601a8152602001807f496e746572657374207061796d656e74732073746f707065642e00000000000081525060200191505060405180910390fd5b6120d2612abb565b565b6120dc611e38565b61214e576040517f08c379a00000000000000000000000000000000000000000000000000000000081526004018080602001828103825260208152602001807f4f776e61626c653a2063616c6c6572206973206e6f7420746865206f776e657281525060200191505060405180910390fd5b600081116121c4576040517f08c379a00000000000000000000000000000000000000000000000000000000081526004018080602001828103825260208152602001807f62616c616e63652073686f756c642062652067726561746572207468616e203081525060200191505060405180910390fd5b806004819055506121d3612aa9565b50565b6000600c60003373ffffffffffffffffffffffffffffffffffffffff1673ffffffffffffffffffffffffffffffffffffffff16815260200190815260200160002060009054906101000a900460ff16612297576040517f08c379a00000000000000000000000000000000000000000000000000000000081526004018080602001828103825260158152602001807f596f75206d75737420666972737420656e726f6c6c000000000000000000000081525060200191505060405180910390fd5b600260009054906101000a900460ff161561231a576040517f08c379a00000000000000000000000000000000000000000000000000000000081526004018080602001828103825260108152602001807f5061757361626c653a207061757365640000000000000000000000000000000081525060200191505060405180910390fd5b60003411612390576040517f08c379a000000000000000000000000000000000000000000000000000000000815260040180806020018281038252601e8152602001807f4465706f736974206d7573742062652067726561746572207468616e2030000081525060200191505060405180910390fd5b6123e234600b60003373ffffffffffffffffffffffffffffffffffffffff1673ffffffffffffffffffffffffffffffffffffffff16815260200190815260200160002054612fa590919063ffffffff16565b600b60003373ffffffffffffffffffffffffffffffffffffffff1673ffffffffffffffffffffffffffffffffffffffff16815260200190815260200160002081905550600b60003373ffffffffffffffffffffffffffffffffffffffff1673ffffffffffffffffffffffffffffffffffffffff1681526020019081526020016000205490503373ffffffffffffffffffffffffffffffffffffffff167f2da466a7b24304f47e87fa2e1e5a81b9831ce54fec19055ce277ca2f39ba42c4346040518082815260200191505060405180910390a290565b60008073ffffffffffffffffffffffffffffffffffffffff163373ffffffffffffffffffffffffffffffffffffffff16141561255c576040517f08c379a00000000000000000000000000000000000000000000000000000000081526004018080602001828103825260108152602001807f496e76616c696420616464726573732e0000000000000000000000000000000081525060200191505060405180910390fd5b600c60003373ffffffffffffffffffffffffffffffffffffffff1673ffffffffffffffffffffffffffffffffffffffff16815260200190815260200160002060009054906101000a900460ff161561261c576040517f08c379a00000000000000000000000000000000000000000000000000000000081526004018080602001828103825260118152602001807f416c726561647920656e726f6c6c65642e00000000000000000000000000000081525060200191505060405180910390fd5b600260009054906101000a900460ff161561269f576040517f08c379a00000000000000000000000000000000000000000000000000000000081526004018080602001828103825260108152602001807f5061757361626c653a207061757365640000000000000000000000000000000081525060200191505060405180910390fd5b6001600c60003373ffffffffffffffffffffffffffffffffffffffff1673ffffffffffffffffffffffffffffffffffffffff16815260200190815260200160002060006101000a81548160ff02191690831515021790555060093390806001815401808255809150509060018203906000526020600020016000909192909190916101000a81548173ffffffffffffffffffffffffffffffffffffffff021916908373ffffffffffffffffffffffffffffffffffffffff16021790555050600160098054905003600a60003373ffffffffffffffffffffffffffffffffffffffff1673ffffffffffffffffffffffffffffffffffffffff16815260200190815260200160002081905550600c60003373ffffffffffffffffffffffffffffffffffffffff1673ffffffffffffffffffffffffffffffffffffffff16815260200190815260200160002060009054906101000a900460ff1690503373ffffffffffffffffffffffffffffffffffffffff167f6132d0e5700fe03060d64172a9ce706f525f7dfacb454a300ba78f4b50fc872260405160405180910390a290565b6000630da4b055905090565b612852611e38565b6128c4576040517f08c379a00000000000000000000000000000000000000000000000000000000081526004018080602001828103825260208152602001807f4f776e61626c653a2063616c6c6572206973206e6f7420746865206f776e657281525060200191505060405180910390fd5b6128cd8161302d565b50565b60045481565b6128de611e38565b612950576040517f08c379a00000000000000000000000000000000000000000000000000000000081526004018080602001828103825260208152602001807f4f776e61626c653a2063616c6c6572206973206e6f7420746865206f776e657281525060200191505060405180910390fd5b600260009054906101000a900460ff16156129d3576040517f08c379a00000000000000000000000000000000000000000000000000000000081526004018080602001828103825260108152602001807f5061757361626c653a207061757365640000000000000000000000000000000081525060200191505060405180910390fd5b600860009054906101000a900460ff16612a2f576001600860006101000a81548160ff0219169083151502179055507f1d110ef6d9298f409fa8c2070f35bb4346254ce1a8ad58a4d0ca74128736e89860405160405180910390a15b565b60018110158015612a4a5750670de0b6b3a76400008111155b612a9f576040517f08c379a00000000000000000000000000000000000000000000000000000000081526004018080602001828103825260268152602001806134876026913960400191505060405180910390fd5b8060068190555050565b600654600a6004540202600581905550565b60008090505b600980549050811015612c3957600060098281548110612add57fe5b9060005260206000200160009054906101000a900473ffffffffffffffffffffffffffffffffffffffff1690506000600b60008373ffffffffffffffffffffffffffffffffffffffff1673ffffffffffffffffffffffffffffffffffffffff16815260200190815260200160002054905060008114158015612b6157506005548110155b15612c2a576000612b81618e94600354840261317190919063ffffffff16565b9050612bd581600b60008673ffffffffffffffffffffffffffffffffffffffff1673ffffffffffffffffffffffffffffffffffffffff16815260200190815260200160002054612fa590919063ffffffff16565b600b60008573ffffffffffffffffffffffffffffffffffffffff1673ffffffffffffffffffffffffffffffffffffffff1681526020019081526020016000208190555080600760008282540192505081905550505b50508080600101915050612ac1565b507f53ba314319f9ad9ecc35e1a102b598107f143841d7d768534884a3b6909d4a156007546040518082815260200191505060405180910390a1565b600082821115612ced576040517f08c379a000000000000000000000000000000000000000000000000000000000815260040180806020018281038252601e8152602001807f536166654d6174683a207375627472616374696f6e206f766572666c6f77000081525060200191505060405180910390fd5b600082840390508091505092915050565b60008073ffffffffffffffffffffffffffffffffffffffff168273ffffffffffffffffffffffffffffffffffffffff161415612d85576040517f08c379a00000000000000000000000000000000000000000000000000000000081526004018080602001828103825260228152602001806134ad6022913960400191505060405180910390fd5b8260000160008373ffffffffffffffffffffffffffffffffffffffff1673ffffffffffffffffffffffffffffffffffffffff16815260200190815260200160002060009054906101000a900460ff16905092915050565b6000600a60008373ffffffffffffffffffffffffffffffffffffffff1673ffffffffffffffffffffffffffffffffffffffff1681526020019081526020016000205490506009805490508110612e325750612eee565b60016009805490501115612ed657600960016009805490500381548110612e5557fe5b9060005260206000200160009054906101000a900473ffffffffffffffffffffffffffffffffffffffff1660098281548110612e8d57fe5b9060005260206000200160006101000a81548173ffffffffffffffffffffffffffffffffffffffff021916908373ffffffffffffffffffffffffffffffffffffffff1602179055505b6009805480919060019003612eeb9190613398565b50505b50565b612f0581600161320090919063ffffffff16565b8073ffffffffffffffffffffffffffffffffffffffff167fcd265ebaf09df2871cc7bd4133404a235ba12eff2041bb89d9c714a2621c7c7e60405160405180910390a250565b612f5f8160016132bd90919063ffffffff16565b8073ffffffffffffffffffffffffffffffffffffffff167f6719d08c1888103bea251a4ed56406bd0c3e69723c8a1686e017e7bbe159b6f860405160405180910390a250565b600080828401905083811015613023576040517f08c379a000000000000000000000000000000000000000000000000000000000815260040180806020018281038252601b8152602001807f536166654d6174683a206164646974696f6e206f766572666c6f77000000000081525060200191505060405180910390fd5b8091505092915050565b600073ffffffffffffffffffffffffffffffffffffffff168173ffffffffffffffffffffffffffffffffffffffff1614156130b3576040517f08c379a000000000000000000000000000000000000000000000000000000000815260040180806020018281038252602681526020018061341a6026913960400191505060405180910390fd5b8073ffffffffffffffffffffffffffffffffffffffff166000809054906101000a900473ffffffffffffffffffffffffffffffffffffffff1673ffffffffffffffffffffffffffffffffffffffff167f8be0079c531659141344cd1fd0a4f28419497f9722a3daafe3b4186f6b6457e060405160405180910390a3806000806101000a81548173ffffffffffffffffffffffffffffffffffffffff021916908373ffffffffffffffffffffffffffffffffffffffff16021790555050565b60008082116131e8576040517f08c379a000000000000000000000000000000000000000000000000000000000815260040180806020018281038252601a8152602001807f536166654d6174683a206469766973696f6e206279207a65726f00000000000081525060200191505060405180910390fd5b60008284816131f357fe5b0490508091505092915050565b61320a8282612cfe565b61325f576040517f08c379a00000000000000000000000000000000000000000000000000000000081526004018080602001828103825260218152602001806134666021913960400191505060405180910390fd5b60008260000160008373ffffffffffffffffffffffffffffffffffffffff1673ffffffffffffffffffffffffffffffffffffffff16815260200190815260200160002060006101000a81548160ff0219169083151502179055505050565b6132c78282612cfe565b1561333a576040517f08c379a000000000000000000000000000000000000000000000000000000000815260040180806020018281038252601f8152602001807f526f6c65733a206163636f756e7420616c72656164792068617320726f6c650081525060200191505060405180910390fd5b60018260000160008373ffffffffffffffffffffffffffffffffffffffff1673ffffffffffffffffffffffffffffffffffffffff16815260200190815260200160002060006101000a81548160ff0219169083151502179055505050565b8154818355818111156133bf578183600052602060002091820191016133be91906133c4565b5b505050565b6133e691905b808211156133e25760008160009055506001016133ca565b5090565b9056fe506175736572526f6c653a2063616c6c657220646f6573206e6f742068617665207468652050617573657220726f6c654f776e61626c653a206e6577206f776e657220697320746865207a65726f206164647265737342616e6b2063616e6e6f742070617920696e74657265737420617420746865206d6f6d656e74526f6c65733a206163636f756e7420646f6573206e6f74206861766520726f6c65726174652073686f756c64206265206265747765656e20312077656920616e64203120455448526f6c65733a206163636f756e7420697320746865207a65726f2061646472657373a265627a7a72305820d70fdf8cbe65f53bb49503ac857e92cd423f040a1c745f4ef2cd0752c56f514b64736f6c634300050a0032526f6c65733a206163636f756e7420697320746865207a65726f2061646472657373",
  "source": "pragma solidity ^0.5.10;\n\nimport 'openzeppelin-solidity/contracts/ownership/Ownable.sol';\nimport 'openzeppelin-solidity/contracts/math/SafeMath.sol';\nimport 'openzeppelin-solidity/contracts/lifecycle/Pausable.sol';\nimport \"../contracts/Ilighthouse.sol\";\nimport \"../contracts/Lighthouse.sol\";\n\n/// @title A bank contract that pays its users interest on a daily basis.\n/// @author David Noel\n/// @notice Interest is based on maintaining a minumum balance in USD, which\n/// is converted to ETH using a rate fed into the contract by an Oracle.\n/// The rate is 10 cents (USD) of ETH.\n/// @dev Daily interest = Interest Rate/365 * Balance\ncontract DollarBank is Ownable, Pausable, Searcher {\n    using SafeMath for uint256;\n\n    /// Bank interest rate\n    uint public interestRate = 3;\n    /// Min balance required (USD) to start receiving interest payments.\n    uint public minBalanceUsd = 1;\n    /// Min balance required (ETH)\n    uint public minBalanceEth;\n    /// Ten cents (USD) in ETH. Defaulted using (0.1 USD ~ 0.00033 ETH 6/28/19)\n    uint public tenCents = 330000000000000;\n    /// Total interest paid by bank to date\n    uint private totalInterestPaid;\n    /// Are interest payments running?\n    bool public interestRunning;\n    /// ETHUSD lighthouse oracle\n    ILighthouse  public myLighthouse;\n    /// Array of users registered\n    address[] private accounts;\n    mapping(address => uint) accountsIndex;\n    /// Users balance.\n    mapping (address => uint) private balances;\n    /// Function to allow contracts to be able to see if a user is enrolled.\n    mapping (address => bool) public enrolled;\n\n    /// When a user signs up\n    event Enrolled(address indexed accountAddress);\n    /// When a user makes a deposit\n    event Deposited(address indexed accountAddress, uint amount);\n    /// When a user makes a withdrawal\n    event Withdrawn(address indexed accountAddress, uint withdrawAmount, uint newBalance);\n    /// When a user closes their account\n    event ClosedAccount(address indexed accountAddress, uint balanceAtClose);\n    /// When interest payment starts\n    event InterestStarted();\n    /// When interest payment stops\n    event InterestStopped();\n    // When interest is paid by bank\n    event InterestPaid(uint _totalInterestPaid);\n    // When oracle updates the price of 10 cents worth of ETH.\n    //event Poked(uint _tenCentsEth);\n    /// When oracle data is not valid\n    event OracleDataNotValid();\n\n    /// Check if user is enrolled.\n    modifier isEnrolled(){\n        require(enrolled[msg.sender], \"You must first enroll\");\n        _;\n    }\n\n    /// Check user is not already enrolled, and user address is valid.\n    modifier checkEnroll(){\n        require(msg.sender != address(0), \"Invalid address.\");\n        require(!enrolled[msg.sender], \"Already enrolled.\");\n        _;\n    }\n\n    /// Ensure user has enough balance to withdraw, and bank can pay user.\n    modifier checkWithdraw(uint withdrawAmount){\n        require(balances[msg.sender] >= withdrawAmount, \"Insufficient balance\");\n        require(address(this).balance >= balances[msg.sender],\"Bank cannot pay interest at the moment\");\n        _;\n    }\n\n    /// Ensures sender is oracle.\n    modifier onlyLighthouse {\n        require (msg.sender == address(myLighthouse), \"Unauthorised\");\n        _;\n    }\n\n        /// Ensures interest payments are enabled\n    modifier interestEnabled {\n        require (interestRunning, \"Interest payments stopped.\");\n        _;\n    }\n\n    /**\n     * @dev Initializes the contract setting the deployer as the initial owner\n     * the Rhombus Oracle address, the minumum balance in ETH, and starts interest payments\n     */\n    constructor(ILighthouse _myLighthouse) public {\n        myLighthouse = _myLighthouse;\n        updateMinBalanceEth();\n        startPayments();\n    }\n\n    /// @notice Enroll a customer with the bank\n    /// @dev The the account and account index is saved, to aid in deletion of an account.\n    /// @return The users enrolled status\n    function enroll() public checkEnroll whenNotPaused returns (bool _enrolled){\n        enrolled[msg.sender] = true;\n        accounts.push(msg.sender);\n        accountsIndex[msg.sender] = accounts.length - 1;\n        _enrolled = enrolled[msg.sender];\n        emit Enrolled(msg.sender);\n    }\n\n    /// @notice Deposit ether into bank\n    /// @return The balance of the user after the deposit is made\n    function deposit() external payable isEnrolled whenNotPaused returns (uint _balance) {\n        require(msg.value > 0, \"Deposit must be greater than 0\");\n        balances[msg.sender] = balances[msg.sender].add(msg.value);\n        _balance = balances[msg.sender];\n        emit Deposited(msg.sender, msg.value);\n    }\n\n    /// @notice Withdraw ether from bank using pull pattern (to prevent re-entrancy)\n    /// checks-effects-interaction pattern to prevent re-entrancy\n    /// @dev This does not return any excess ether sent to it\n    /// @param withdrawAmount amount you want to withdraw\n    /// @return The balance remaining for the user\n    function withdraw(uint withdrawAmount) external isEnrolled checkWithdraw(withdrawAmount) returns (uint _balance) {\n        balances[msg.sender] = balances[msg.sender].sub(withdrawAmount);\n        msg.sender.transfer(withdrawAmount);\n        _balance = balances[msg.sender];\n        emit Withdrawn(msg.sender, withdrawAmount, _balance);\n    }\n\n    /// @notice Close bank account and return all user's balance to them.\n    /// checks-effects-interaction pattern to prevent re-entrancy\n    /// @return The enrolled status of the user.\n    function closeAccount() external isEnrolled checkWithdraw(balances[msg.sender]) whenNotPaused returns (bool) {\n        uint totalBalance = balances[msg.sender];\n        balances[msg.sender] = 0;\n        enrolled[msg.sender] = false;\n        removeAccount(msg.sender);\n        if(totalBalance > 0){\n            msg.sender.transfer(totalBalance);\n        }\n        emit ClosedAccount(msg.sender, totalBalance);\n        return !enrolled[msg.sender];\n    }\n\n    /// @notice Get account balance\n    /// @return The balance of the user\n    function getBalance() public view returns (uint) {\n        return balances[msg.sender];\n    }\n\n    /// @notice Get all registered accounts\n    /// @return Array of accounts\n    function getAccounts() public view onlyOwner returns (address[] memory) {\n        return accounts;\n    }\n\n    /// @notice Get total accounts\n    /// @return Account total\n    function getNumAccounts() public view onlyOwner returns (uint) {\n        return accounts.length;\n    }\n\n    /// @notice Get address of this contract\n    /// @return The contract address\n    function getContractAddress() public view returns (address) {\n        return address(this);\n    }\n\n    /// @notice Get contract balance\n    /// @return The balance of the contract\n    function getContractBalance() public view returns(uint) {\n        return address(this).balance;\n    }\n\n    /// @notice Set the bank interest rate.\n    function setInterestRate(uint _rate) public onlyOwner {\n        require(_rate >= 1 && _rate <= 6, \"rate should be between 1 and 6\");\n        interestRate = _rate;\n    }\n\n    /// @notice Set ten cents (USD) worth of ETH.\n    /// @dev Rate capped at 1 ETH. Could change if ETH becomes extremely valuable.\n    function setTencentsOfEth(uint _rate) private {\n        require(_rate >= 1 wei && _rate <= 1 ether, \"rate should be between 1 wei and 1 ETH\");\n        tenCents = _rate;\n    }\n\n    /// @notice Set the minimum balance (USD, ETH) required to start receiving interest.\n    function setMinBalance(uint _minBalance) public onlyOwner {\n        require(_minBalance > 0, \"balance should be greater than 0\");\n        minBalanceUsd = _minBalance;\n        updateMinBalanceEth();\n    }\n\n    /// @notice Start interest payments. Circuit breaker pattern used.\n    function startPayments() public onlyOwner whenNotPaused {\n        if(!interestRunning){\n        interestRunning = true;\n        emit InterestStarted();\n        }\n    }\n\n    /// @notice Stop interest payments. Circuit breaker pattern used.\n    function stopPayments() public onlyOwner whenNotPaused {\n        if(interestRunning){\n        interestRunning = false;\n        emit InterestStopped();\n        }\n    }\n\n    /// @notice Pause the contract. This will disable enrollments, deposits and interest payments.\n    /// Only withdrawals will be allowed\n    function pauseContract() public onlyOwner {\n        if(interestRunning){\n            interestRunning = false;\n        }\n        pause();\n    }\n\n    /// @notice Unpause the contract. This will resume all contract operations.\n    function unPauseContract() public onlyOwner {\n        interestRunning = true;\n        unpause();\n    }\n\n    /// @notice Set 10 cents (USD) worth of ether. This will be called only by\n    /// the oracle, and when the contract is not paused (circuit breaker pattern).\n    function poke() public onlyLighthouse interestEnabled {\n        bool _valid;\n        uint _tenCents;\n            (_tenCents, _valid) = myLighthouse.peekData();\n            if (!_valid) {\n                emit OracleDataNotValid();\n                return;\n            }\n            setTencentsOfEth(_tenCents);\n            updateMinBalanceEth();\n            payInterest();\n            //emit Poked(_tenCents);\n    }\n\n    /// @notice Pays interest to every account once criteria is met\n    /// @dev Warn: Unbounded for loop is an anti-pattern; interest is paid to every\n    /// customer at once as opposed to individually\n    function payInterest() private {\n        for (uint i = 0; i < accounts.length; i++) {\n            address customerAddress = accounts[i];\n            /// get customer balance\n            uint balance = balances[customerAddress];\n            /// Customer is eligible for interest\n            if(balance != 0 && balance >= minBalanceEth){\n                // Calculate interest per day\n                uint interest = (balance * interestRate).div(36500);\n                balances[customerAddress] = balances[customerAddress].add(interest);\n                totalInterestPaid += interest;\n            }\n        }\n        emit InterestPaid(totalInterestPaid);\n    }\n\n    /// @notice Pays interest to every account once criteria is met\n    /// @dev Warn: Unbounded for loop is an anti-pattern\n    function payInterestOwner() external onlyOwner interestEnabled {\n        payInterest();\n    }\n\n    /// @notice Remove an account from the contract\n    /// @dev Maybe look into safer algorithm to remove ?\n    function removeAccount(address _account) private {\n        uint index = accountsIndex[_account];\n        if (index >= accounts.length) return;\n        if (accounts.length > 1) {\n            accounts[index] = accounts[accounts.length-1];\n        }\n        accounts.length--;\n    }\n\n    /// @notice Set the minimum balance in ETH.\n    function updateMinBalanceEth() private {\n        minBalanceEth = minBalanceUsd * 10 * tenCents;\n    }\n\n    // Fallback function - Called if other functions don't match call or\n    // sent ether without data\n    function() external payable {\n        require(msg.data.length == 0, \"data sent with message\");\n        emit Deposited(msg.sender, msg.value);\n    }\n}",
  "sourcePath": "/Users/dnoel/Documents/projects/consensys/finalproject/dollarbank/contracts/DollarBank.sol",
  "compiler": {
    "name": "solc",
    "version": "0.5.10+commit.5a6ea5b1.Emscripten.clang"
  },
  "schemaVersion": "3.0.11",
  "updatedAt": "2019-07-11T15:41:57.758Z",
  "devdoc": {
    "author": "David Noel",
    "details": "Daily interest = Interest Rate/365 * Balance",
    "methods": {
      "closeAccount()": {
        "return": "The enrolled status of the user."
      },
      "constructor": {
        "details": "Initializes the contract setting the deployer as the initial owner the Rhombus Oracle address, the minumum balance in ETH, and starts interest payments"
      },
      "deposit()": {
        "return": "The balance of the user after the deposit is made"
      },
      "enroll()": {
        "details": "The the account and account index is saved, to aid in deletion of an account.",
        "return": "The users enrolled status"
      },
      "getAccounts()": {
        "return": "Array of accounts"
      },
      "getBalance()": {
        "return": "The balance of the user"
      },
      "getContractAddress()": {
        "return": "The contract address"
      },
      "getContractBalance()": {
        "return": "The balance of the contract"
      },
      "getNumAccounts()": {
        "return": "Account total"
      },
      "isOwner()": {
        "details": "Returns true if the caller is the current owner."
      },
      "owner()": {
        "details": "Returns the address of the current owner."
      },
      "pause()": {
        "details": "Called by a pauser to pause, triggers stopped state."
      },
      "paused()": {
        "details": "Returns true if the contract is paused, and false otherwise."
      },
      "payInterestOwner()": {
        "details": "Warn: Unbounded for loop is an anti-pattern"
      },
      "renounceOwnership()": {
        "details": "Leaves the contract without owner. It will not be possible to call `onlyOwner` functions anymore. Can only be called by the current owner.     * > Note: Renouncing ownership will leave the contract without an owner, thereby removing any functionality that is only available to the owner."
      },
      "transferOwnership(address)": {
        "details": "Transfers ownership of the contract to a new account (`newOwner`). Can only be called by the current owner."
      },
      "unpause()": {
        "details": "Called by a pauser to unpause, returns to normal state."
      },
      "withdraw(uint256)": {
        "details": "This does not return any excess ether sent to it",
        "params": {
          "withdrawAmount": "amount you want to withdraw"
        },
        "return": "The balance remaining for the user"
      }
    },
    "title": "A bank contract that pays its users interest on a daily basis."
  },
  "userdoc": {
    "methods": {
      "closeAccount()": {
        "notice": "Close bank account and return all user's balance to them. checks-effects-interaction pattern to prevent re-entrancy"
      },
      "deposit()": {
        "notice": "Deposit ether into bank"
      },
      "enroll()": {
        "notice": "Enroll a customer with the bank"
      },
      "getAccounts()": {
        "notice": "Get all registered accounts"
      },
      "getBalance()": {
        "notice": "Get account balance"
      },
      "getContractAddress()": {
        "notice": "Get address of this contract"
      },
      "getContractBalance()": {
        "notice": "Get contract balance"
      },
      "getNumAccounts()": {
        "notice": "Get total accounts"
      },
      "pauseContract()": {
        "notice": "Pause the contract. This will disable enrollments, deposits and interest payments. Only withdrawals will be allowed"
      },
      "payInterestOwner()": {
        "notice": "Pays interest to every account once criteria is met"
      },
      "poke()": {
        "notice": "Set 10 cents (USD) worth of ether. This will be called only by the oracle, and when the contract is not paused (circuit breaker pattern)."
      },
      "setInterestRate(uint256)": {
        "notice": "Set the bank interest rate."
      },
      "setMinBalance(uint256)": {
        "notice": "Set the minimum balance (USD, ETH) required to start receiving interest."
      },
      "startPayments()": {
        "notice": "Start interest payments. Circuit breaker pattern used."
      },
      "stopPayments()": {
        "notice": "Stop interest payments. Circuit breaker pattern used."
      },
      "unPauseContract()": {
        "notice": "Unpause the contract. This will resume all contract operations."
      },
      "withdraw(uint256)": {
        "notice": "Withdraw ether from bank using pull pattern (to prevent re-entrancy) checks-effects-interaction pattern to prevent re-entrancy"
      }
    },
    "notice": "Interest is based on maintaining a minumum balance in USD, which is converted to ETH using a rate fed into the contract by an Oracle. The rate is 10 cents (USD) of ETH."
  }
}