{
  "contractName": "Lighthouse",
  "abi": [
    {
      "constant": true,
      "inputs": [],
      "name": "auth",
      "outputs": [
        {
          "name": "",
          "type": "address"
        }
      ],
      "payable": false,
      "stateMutability": "view",
      "type": "function"
    },
    {
      "constant": false,
      "inputs": [
        {
          "name": "newAuth",
          "type": "address"
        }
      ],
      "name": "changeAuth",
      "outputs": [],
      "payable": false,
      "stateMutability": "nonpayable",
      "type": "function"
    },
    {
      "constant": false,
      "inputs": [
        {
          "name": "newSeeker",
          "type": "address"
        }
      ],
      "name": "changeSearcher",
      "outputs": [],
      "payable": false,
      "stateMutability": "nonpayable",
      "type": "function"
    },
    {
      "constant": false,
      "inputs": [
        {
          "name": "newMaxAge",
          "type": "uint256"
        }
      ],
      "name": "setMaxAge",
      "outputs": [],
      "payable": false,
      "stateMutability": "nonpayable",
      "type": "function"
    },
    {
      "constant": false,
      "inputs": [
        {
          "name": "DataValue",
          "type": "uint256"
        },
        {
          "name": "nonce",
          "type": "uint256"
        }
      ],
      "name": "write",
      "outputs": [],
      "payable": false,
      "stateMutability": "nonpayable",
      "type": "function"
    },
    {
      "constant": true,
      "inputs": [],
      "name": "notTooLongSinceUpdated",
      "outputs": [
        {
          "name": "",
          "type": "bool"
        }
      ],
      "payable": false,
      "stateMutability": "view",
      "type": "function"
    },
    {
      "constant": true,
      "inputs": [],
      "name": "peekData",
      "outputs": [
        {
          "name": "v",
          "type": "uint128"
        },
        {
          "name": "b",
          "type": "bool"
        }
      ],
      "payable": false,
      "stateMutability": "view",
      "type": "function"
    },
    {
      "constant": true,
      "inputs": [],
      "name": "peekUpdated",
      "outputs": [
        {
          "name": "v",
          "type": "uint32"
        },
        {
          "name": "b",
          "type": "bool"
        }
      ],
      "payable": false,
      "stateMutability": "view",
      "type": "function"
    },
    {
      "constant": true,
      "inputs": [],
      "name": "peekLastNonce",
      "outputs": [
        {
          "name": "v",
          "type": "uint32"
        },
        {
          "name": "b",
          "type": "bool"
        }
      ],
      "payable": false,
      "stateMutability": "view",
      "type": "function"
    },
    {
      "constant": true,
      "inputs": [],
      "name": "peek",
      "outputs": [
        {
          "name": "v",
          "type": "bytes32"
        },
        {
          "name": "ok",
          "type": "bool"
        }
      ],
      "payable": false,
      "stateMutability": "view",
      "type": "function"
    },
    {
      "constant": true,
      "inputs": [],
      "name": "read",
      "outputs": [
        {
          "name": "x",
          "type": "bytes32"
        }
      ],
      "payable": false,
      "stateMutability": "view",
      "type": "function"
    }
  ],
  "bytecode": "0x6080604052336000806101000a81548173ffffffffffffffffffffffffffffffffffffffff021916908373ffffffffffffffffffffffffffffffffffffffff16021790555034801561005057600080fd5b50610ba5806100606000396000f3fe608060405234801561001057600080fd5b50600436106100a95760003560e01c80639c0e3f7a116100715780639c0e3f7a146101b4578063bdf384a8146101ec578063becfbf6914610221578063d6e848ac14610256578063de9375f21461029a578063e2f90632146102e4576100a9565b806322969eac146100ae578063420b81f6146100f257806357de26a41461013f57806359e02dd71461015d5780635ae28fc914610186575b600080fd5b6100f0600480360360208110156100c457600080fd5b81019080803573ffffffffffffffffffffffffffffffffffffffff169060200190929190505050610306565b005b6100fa61040b565b60405180836fffffffffffffffffffffffffffffffff166fffffffffffffffffffffffffffffffff168152602001821515151581526020019250505060405180910390f35b610147610436565b6040518082815260200191505060405180910390f35b6101656104de565b60405180838152602001821515151581526020019250505060405180910390f35b6101b26004803603602081101561019c57600080fd5b810190808035906020019092919050505061051e565b005b6101ea600480360360408110156101ca57600080fd5b8101908080359060200190929190803590602001909291905050506105ea565b005b6101f4610890565b604051808363ffffffff1663ffffffff168152602001821515151581526020019250505060405180910390f35b6102296108c5565b604051808363ffffffff1663ffffffff168152602001821515151581526020019250505060405180910390f35b6102986004803603602081101561026c57600080fd5b81019080803573ffffffffffffffffffffffffffffffffffffffff1690602001909291905050506108fa565b005b6102a2610b1b565b604051808273ffffffffffffffffffffffffffffffffffffffff1673ffffffffffffffffffffffffffffffffffffffff16815260200191505060405180910390f35b6102ec610b40565b604051808215151515815260200191505060405180910390f35b3373ffffffffffffffffffffffffffffffffffffffff166000809054906101000a900473ffffffffffffffffffffffffffffffffffffffff1673ffffffffffffffffffffffffffffffffffffffff16146103c8576040517f08c379a00000000000000000000000000000000000000000000000000000000081526004018080602001828103825260138152602001807f556e617574686f7269736564206163636573730000000000000000000000000081525060200191505060405180910390fd5b806000806101000a81548173ffffffffffffffffffffffffffffffffffffffff021916908373ffffffffffffffffffffffffffffffffffffffff16021790555050565b600080600254915061041b610b40565b801561042a5750600060025414155b90508181915091509091565b6000610440610b40565b801561044f5750600060025414155b6104c1576040517f08c379a00000000000000000000000000000000000000000000000000000000081526004018080602001828103825260138152602001807f496e76616c696420646174612073746f7265640000000000000000000000000081525060200191505060405180910390fd5b6fffffffffffffffffffffffffffffffff6002541660001b905090565b6000806fffffffffffffffffffffffffffffffff6002541660001b9150610503610b40565b80156105125750600060025414155b90508181915091509091565b3373ffffffffffffffffffffffffffffffffffffffff166000809054906101000a900473ffffffffffffffffffffffffffffffffffffffff1673ffffffffffffffffffffffffffffffffffffffff16146105e0576040517f08c379a00000000000000000000000000000000000000000000000000000000081526004018080602001828103825260138152602001807f556e617574686f7269736564206163636573730000000000000000000000000081525060200191505060405180910390fd5b8060038190555050565b3373ffffffffffffffffffffffffffffffffffffffff166000809054906101000a900473ffffffffffffffffffffffffffffffffffffffff1673ffffffffffffffffffffffffffffffffffffffff16146106ac576040517f08c379a00000000000000000000000000000000000000000000000000000000081526004018080602001828103825260138152602001807f556e617574686f7269736564206163636573730000000000000000000000000081525060200191505060405180910390fd5b6000608083901c14610726576040517f08c379a000000000000000000000000000000000000000000000000000000000815260040180806020018281038252600f8152602001807f56616c756520746f6f206c61726765000000000000000000000000000000000081525060200191505060405180910390fd5b6000602082901c146107a0576040517f08c379a000000000000000000000000000000000000000000000000000000000815260040180806020018281038252600f8152602001807f4e6f6e636520746f6f206c61726765000000000000000000000000000000000081525060200191505060405180910390fd5b608042901b60c082901b830101600281905550600073ffffffffffffffffffffffffffffffffffffffff16600160009054906101000a900473ffffffffffffffffffffffffffffffffffffffff1673ffffffffffffffffffffffffffffffffffffffff161461088c57600160009054906101000a900473ffffffffffffffffffffffffffffffffffffffff1673ffffffffffffffffffffffffffffffffffffffff1663181783586040518163ffffffff1660e01b8152600401600060405180830381600087803b15801561087357600080fd5b505af1158015610887573d6000803e3d6000fd5b505050505b5050565b60008060006080600254901c90508092506108a9610b40565b80156108b85750600060025414155b9150828292509250509091565b600080600060c0600254901c90508092506108de610b40565b80156108ed5750600060025414155b9150828292509250509091565b3373ffffffffffffffffffffffffffffffffffffffff166000809054906101000a900473ffffffffffffffffffffffffffffffffffffffff1673ffffffffffffffffffffffffffffffffffffffff16146109bc576040517f08c379a00000000000000000000000000000000000000000000000000000000081526004018080602001828103825260138152602001807f556e617574686f7269736564206163636573730000000000000000000000000081525060200191505060405180910390fd5b80600160006101000a81548173ffffffffffffffffffffffffffffffffffffffff021916908373ffffffffffffffffffffffffffffffffffffffff160217905550630da4b055600160009054906101000a900473ffffffffffffffffffffffffffffffffffffffff1673ffffffffffffffffffffffffffffffffffffffff1663eeb728666040518163ffffffff1660e01b815260040160206040518083038186803b158015610a6a57600080fd5b505afa158015610a7e573d6000803e3d6000fd5b505050506040513d6020811015610a9457600080fd5b810190808051906020019092919050505014610b18576040517f08c379a00000000000000000000000000000000000000000000000000000000081526004018080602001828103825260108152602001807f696e76616c69642073656172636865720000000000000000000000000000000081525060200191505060405180910390fd5b50565b6000809054906101000a900473ffffffffffffffffffffffffffffffffffffffff1681565b60008067ffffffffffffffff6080600254901c1642039050600354811080610b6a57506000600354145b9150509056fea265627a7a723058206dba97f593d74a95f31333190a6dabec145a6457468aca25c7dafaca940a013364736f6c634300050a0032",
  "source": "pragma solidity ^0.5.10;\r\n\r\n// Searcher is an interface for contracts that want to be notified of incoming data\r\ncontract Searcher {\r\n\r\n    // poke is called when new data arrives\r\n    function poke() public;\r\n\r\n    // this is called to ensure that only valid Searchers can be added to the Lighthouse - returns an arbitrarily chosen number\r\n    function identify() external pure returns(uint) {\r\n        return 0xda4b055;\r\n    }\r\n}\r\n\r\n// for operation of this contract see the readme file.\r\ncontract Lighthouse {\r\n\r\n    address public auth = msg.sender; // ownable model. No real value in making it transferrable.\r\n\r\n    Searcher seeker;                  // a single contract that can be notified of data changes\r\n\r\n    uint value;                       // holds all the data bit fiddled into a single 32 byte word.\r\n\r\n    uint maxAge;                      // if non zero, sets a limit to data validity\r\n\r\n/*--------------------------------- Admin Functions -----------------------------------------------*/\r\n\r\n    // Only allows an authorized address to call certain functions\r\n    modifier onlyAuth {\r\n        require(auth == msg.sender, \"Unauthorised access\");\r\n        _;\r\n    }\r\n\r\n    function changeAuth(address newAuth) public onlyAuth {\r\n        auth = newAuth;\r\n    }\r\n\r\n    function changeSearcher(Searcher newSeeker) public onlyAuth {\r\n        seeker = newSeeker;\r\n        require(seeker.identify() == 0xda4b055,\"invalid searcher\");\r\n    }\r\n\r\n    function setMaxAge(uint newMaxAge) public onlyAuth {\r\n        maxAge = newMaxAge;\r\n    }\r\n\r\n    // Writes a value into the lighthouse. Usually done by a rhombus oracle\r\n    function write(uint  DataValue, uint nonce) external onlyAuth {\r\n        require ((DataValue >> 128) == 0, \"Value too large\");\r\n        require ((nonce >> 32) == 0, \"Nonce too large\");\r\n        value = DataValue + (nonce << 192) + (now << 128) ;\r\n        if (address(seeker) != address(0)) {\r\n            seeker.poke();\r\n        }\r\n    }\r\n\r\n/*--------------------------------- Public Functions -----------------------------------------------*/\r\n\r\n    // Checks if data is within age limit\r\n    function notTooLongSinceUpdated() public view returns (bool) {\r\n        uint since = now - ((value >> 128) &\r\n        0x000000000000000000000000000000000000000000000000ffffffffffffffff);\r\n        return (since < maxAge) || (maxAge == 0);\r\n    }\r\n\r\n    // Obtains the data stored inside the lighthouse\r\n    function peekData() external view returns (uint128 v,bool b) {\r\n        v = uint128(value);\r\n        b = notTooLongSinceUpdated() && value != 0;\r\n        return (v, b);\r\n    }\r\n\r\n    function peekUpdated()  external view returns (uint32 v,bool b) {\r\n        uint v2 = value >> 128;\r\n        v = uint32(v2);\r\n        b = notTooLongSinceUpdated() && value != 0;\r\n        return (v, b);\r\n    }\r\n\r\n    function peekLastNonce() external view returns (uint32 v,bool b) {\r\n        uint v2 = value >> 192;\r\n        v = uint32(v2);\r\n        b = notTooLongSinceUpdated() && value != 0;\r\n        return (v, b);\r\n    }\r\n\r\n    function peek() external view returns (bytes32 v ,bool ok) {\r\n        v = bytes32(value & 0x00000000000000000000000000000000ffffffffffffffffffffffffffffffff);\r\n        ok = notTooLongSinceUpdated() && value != 0;\r\n        return (v, ok);\r\n    }\r\n\r\n    function read() external view returns (bytes32 x) {\r\n        require(notTooLongSinceUpdated() && value != 0, \"Invalid data stored\");\r\n        return bytes32(value & 0x00000000000000000000000000000000ffffffffffffffffffffffffffffffff);\r\n    }\r\n\r\n}\r\n",
  "sourcePath": "/Users/dnoel/Documents/projects/consensys/finalproject/dollarbank/contracts/Lighthouse.sol",
  "compiler": {
    "name": "solc",
    "version": "0.5.10+commit.5a6ea5b1.Emscripten.clang"
  },
  "schemaVersion": "3.0.11",
  "updatedAt": "2019-07-09T15:22:01.513Z",
  "devdoc": {
    "methods": {}
  },
  "userdoc": {
    "methods": {}
  }
}